{
  "contractName": "MealDispatchDApp",
  "abi": [
    {
      "inputs": [],
      "stateMutability": "nonpayable",
      "type": "constructor"
    },
    {
      "anonymous": false,
      "inputs": [
        {
          "indexed": true,
          "internalType": "address",
          "name": "driverAddress",
          "type": "address"
        }
      ],
      "name": "DriverRegistered",
      "type": "event"
    },
    {
      "anonymous": false,
      "inputs": [
        {
          "indexed": true,
          "internalType": "address",
          "name": "customer",
          "type": "address"
        },
        {
          "indexed": true,
          "internalType": "address",
          "name": "store",
          "type": "address"
        },
        {
          "indexed": true,
          "internalType": "uint256",
          "name": "orderId",
          "type": "uint256"
        },
        {
          "indexed": false,
          "internalType": "uint256",
          "name": "totalAmount",
          "type": "uint256"
        },
        {
          "indexed": false,
          "internalType": "uint256",
          "name": "processingFee",
          "type": "uint256"
        }
      ],
      "name": "OrderPlaced",
      "type": "event"
    },
    {
      "anonymous": false,
      "inputs": [
        {
          "indexed": true,
          "internalType": "uint256",
          "name": "orderId",
          "type": "uint256"
        },
        {
          "indexed": false,
          "internalType": "enum MealDispatchDApp.OrderState",
          "name": "status",
          "type": "uint8"
        }
      ],
      "name": "OrderStateChanged",
      "type": "event"
    },
    {
      "anonymous": false,
      "inputs": [
        {
          "indexed": true,
          "internalType": "address",
          "name": "from",
          "type": "address"
        },
        {
          "indexed": true,
          "internalType": "address",
          "name": "to",
          "type": "address"
        },
        {
          "indexed": false,
          "internalType": "uint256",
          "name": "amount",
          "type": "uint256"
        }
      ],
      "name": "PaymentReceived",
      "type": "event"
    },
    {
      "anonymous": false,
      "inputs": [
        {
          "indexed": true,
          "internalType": "address",
          "name": "owner",
          "type": "address"
        },
        {
          "indexed": false,
          "internalType": "uint256",
          "name": "amount",
          "type": "uint256"
        },
        {
          "indexed": false,
          "internalType": "uint256",
          "name": "contractBalance",
          "type": "uint256"
        }
      ],
      "name": "ProcessingFeeWithdrawn",
      "type": "event"
    },
    {
      "anonymous": false,
      "inputs": [
        {
          "indexed": true,
          "internalType": "address",
          "name": "storeAddress",
          "type": "address"
        }
      ],
      "name": "StoreRegistered",
      "type": "event"
    },
    {
      "inputs": [
        {
          "internalType": "address",
          "name": "",
          "type": "address"
        },
        {
          "internalType": "uint256",
          "name": "",
          "type": "uint256"
        }
      ],
      "name": "customerOrders",
      "outputs": [
        {
          "internalType": "uint256",
          "name": "",
          "type": "uint256"
        }
      ],
      "stateMutability": "view",
      "type": "function",
      "constant": true
    },
    {
      "inputs": [
        {
          "internalType": "address",
          "name": "",
          "type": "address"
        },
        {
          "internalType": "uint256",
          "name": "",
          "type": "uint256"
        }
      ],
      "name": "driverOrders",
      "outputs": [
        {
          "internalType": "uint256",
          "name": "",
          "type": "uint256"
        }
      ],
      "stateMutability": "view",
      "type": "function",
      "constant": true
    },
    {
      "inputs": [
        {
          "internalType": "address",
          "name": "",
          "type": "address"
        }
      ],
      "name": "driversIsRegistered",
      "outputs": [
        {
          "internalType": "bool",
          "name": "",
          "type": "bool"
        }
      ],
      "stateMutability": "view",
      "type": "function",
      "constant": true
    },
    {
      "inputs": [],
      "name": "orderCounter",
      "outputs": [
        {
          "internalType": "uint256",
          "name": "",
          "type": "uint256"
        }
      ],
      "stateMutability": "view",
      "type": "function",
      "constant": true
    },
    {
      "inputs": [
        {
          "internalType": "uint256",
          "name": "",
          "type": "uint256"
        }
      ],
      "name": "orders",
      "outputs": [
        {
          "internalType": "address",
          "name": "customer",
          "type": "address"
        },
        {
          "internalType": "address",
          "name": "store",
          "type": "address"
        },
        {
          "internalType": "address",
          "name": "driver",
          "type": "address"
        },
        {
          "internalType": "uint256",
          "name": "foodTotal",
          "type": "uint256"
        },
        {
          "internalType": "uint256",
          "name": "foodTip",
          "type": "uint256"
        },
        {
          "internalType": "uint256",
          "name": "deliveryFee",
          "type": "uint256"
        },
        {
          "internalType": "uint256",
          "name": "deliveryTip",
          "type": "uint256"
        },
        {
          "internalType": "uint256",
          "name": "processingFee",
          "type": "uint256"
        },
        {
          "internalType": "uint256",
          "name": "totalAmount",
          "type": "uint256"
        },
        {
          "internalType": "enum MealDispatchDApp.OrderState",
          "name": "status",
          "type": "uint8"
        }
      ],
      "stateMutability": "view",
      "type": "function",
      "constant": true
    },
    {
      "inputs": [],
      "name": "owner",
      "outputs": [
        {
          "internalType": "address",
          "name": "",
          "type": "address"
        }
      ],
      "stateMutability": "view",
      "type": "function",
      "constant": true
    },
    {
      "inputs": [
        {
          "internalType": "address",
          "name": "",
          "type": "address"
        },
        {
          "internalType": "uint256",
          "name": "",
          "type": "uint256"
        }
      ],
      "name": "storeOrders",
      "outputs": [
        {
          "internalType": "uint256",
          "name": "",
          "type": "uint256"
        }
      ],
      "stateMutability": "view",
      "type": "function",
      "constant": true
    },
    {
      "inputs": [
        {
          "internalType": "address",
          "name": "",
          "type": "address"
        }
      ],
      "name": "storesIsRegistered",
      "outputs": [
        {
          "internalType": "bool",
          "name": "",
          "type": "bool"
        }
      ],
      "stateMutability": "view",
      "type": "function",
      "constant": true
    },
    {
      "inputs": [],
      "name": "totalProcessingFeesCollected",
      "outputs": [
        {
          "internalType": "uint256",
          "name": "",
          "type": "uint256"
        }
      ],
      "stateMutability": "view",
      "type": "function",
      "constant": true
    },
    {
      "inputs": [],
      "name": "registerStore",
      "outputs": [],
      "stateMutability": "nonpayable",
      "type": "function"
    },
    {
      "inputs": [],
      "name": "registerDriver",
      "outputs": [],
      "stateMutability": "nonpayable",
      "type": "function"
    },
    {
      "inputs": [
        {
          "internalType": "address",
          "name": "_storeAddress",
          "type": "address"
        },
        {
          "internalType": "uint256",
          "name": "_foodTotal",
          "type": "uint256"
        },
        {
          "internalType": "uint256",
          "name": "_foodTip",
          "type": "uint256"
        },
        {
          "internalType": "uint256",
          "name": "_deliveryFee",
          "type": "uint256"
        },
        {
          "internalType": "uint256",
          "name": "_deliveryTip",
          "type": "uint256"
        },
        {
          "internalType": "uint256",
          "name": "_processingFee",
          "type": "uint256"
        }
      ],
      "name": "placeOrder",
      "outputs": [
        {
          "internalType": "uint256",
          "name": "",
          "type": "uint256"
        }
      ],
      "stateMutability": "payable",
      "type": "function",
      "payable": true
    },
    {
      "inputs": [
        {
          "internalType": "uint256",
          "name": "_orderId",
          "type": "uint256"
        }
      ],
      "name": "acceptOrder",
      "outputs": [],
      "stateMutability": "nonpayable",
      "type": "function"
    },
    {
      "inputs": [
        {
          "internalType": "uint256",
          "name": "_orderId",
          "type": "uint256"
        }
      ],
      "name": "cancelOrder",
      "outputs": [],
      "stateMutability": "nonpayable",
      "type": "function"
    },
    {
      "inputs": [
        {
          "internalType": "uint256",
          "name": "_orderId",
          "type": "uint256"
        }
      ],
      "name": "readyForPickup",
      "outputs": [],
      "stateMutability": "nonpayable",
      "type": "function"
    },
    {
      "inputs": [
        {
          "internalType": "uint256",
          "name": "_orderId",
          "type": "uint256"
        }
      ],
      "name": "pickedUpOrder",
      "outputs": [],
      "stateMutability": "nonpayable",
      "type": "function"
    },
    {
      "inputs": [
        {
          "internalType": "uint256",
          "name": "_orderId",
          "type": "uint256"
        }
      ],
      "name": "orderDelivered",
      "outputs": [],
      "stateMutability": "nonpayable",
      "type": "function"
    },
    {
      "inputs": [
        {
          "internalType": "uint256",
          "name": "_orderId",
          "type": "uint256"
        }
      ],
      "name": "confirmOrderDelivered",
      "outputs": [],
      "stateMutability": "nonpayable",
      "type": "function"
    },
    {
      "inputs": [],
      "name": "withdrawProcessingFees",
      "outputs": [],
      "stateMutability": "nonpayable",
      "type": "function"
    },
    {
      "inputs": [
        {
          "internalType": "address",
          "name": "_storeAddress",
          "type": "address"
        }
      ],
      "name": "isStoreRegistered",
      "outputs": [
        {
          "internalType": "bool",
          "name": "",
          "type": "bool"
        }
      ],
      "stateMutability": "view",
      "type": "function",
      "constant": true
    },
    {
      "inputs": [
        {
          "internalType": "address",
          "name": "_driverAddress",
          "type": "address"
        }
      ],
      "name": "isDriverRegistered",
      "outputs": [
        {
          "internalType": "bool",
          "name": "",
          "type": "bool"
        }
      ],
      "stateMutability": "view",
      "type": "function",
      "constant": true
    },
    {
      "inputs": [
        {
          "internalType": "address",
          "name": "_storeAddress",
          "type": "address"
        }
      ],
      "name": "getStoreOrders",
      "outputs": [
        {
          "internalType": "uint256[]",
          "name": "",
          "type": "uint256[]"
        }
      ],
      "stateMutability": "view",
      "type": "function",
      "constant": true
    },
    {
      "inputs": [
        {
          "internalType": "address",
          "name": "_customerAddress",
          "type": "address"
        }
      ],
      "name": "getCustomerOrders",
      "outputs": [
        {
          "internalType": "uint256[]",
          "name": "",
          "type": "uint256[]"
        }
      ],
      "stateMutability": "view",
      "type": "function",
      "constant": true
    },
    {
      "inputs": [],
      "name": "getAvailableOrderIdsForDelivery",
      "outputs": [
        {
          "internalType": "uint256[]",
          "name": "",
          "type": "uint256[]"
        }
      ],
      "stateMutability": "view",
      "type": "function",
      "constant": true
    },
    {
      "inputs": [
        {
          "internalType": "address",
          "name": "_storeAddress",
          "type": "address"
        },
        {
          "internalType": "enum MealDispatchDApp.OrderState",
          "name": "_orderState",
          "type": "uint8"
        }
      ],
      "name": "getStoreOrdersIdsByStatus",
      "outputs": [
        {
          "internalType": "uint256[]",
          "name": "",
          "type": "uint256[]"
        }
      ],
      "stateMutability": "view",
      "type": "function",
      "constant": true
    },
    {
      "inputs": [],
      "name": "getContractBalance",
      "outputs": [
        {
          "internalType": "uint256",
          "name": "",
          "type": "uint256"
        }
      ],
      "stateMutability": "view",
      "type": "function",
      "constant": true
    },
    {
      "inputs": [],
      "name": "getProcessingFeesCollected",
      "outputs": [
        {
          "internalType": "uint256",
          "name": "",
          "type": "uint256"
        }
      ],
      "stateMutability": "view",
      "type": "function",
      "constant": true
    }
  ],
  "bytecode": "0x608060405234801561001057600080fd5b506000600781905550336000806101000a81548173ffffffffffffffffffffffffffffffffffffffff021916908373ffffffffffffffffffffffffffffffffffffffff1602179055506000600881905550613f0c806100706000396000f3fe60806040526004361061019c5760003560e01c80636f9fb98a116100ec578063b789bf521161008a578063dc34236d11610064578063dc34236d14610610578063de1ed1e514610639578063e742a18214610664578063ef18e9ed1461068d5761019c565b8063b789bf521461056b578063caabb9dd14610596578063d35b0338146105d35761019c565b806393c022ba116100c657806393c022ba146104945780639bb57700146104ab5780639cf6f482146104e8578063a85c38ef146105255761019c565b80636f9fb98a146104135780638c39391d1461043e5780638da5cb5b146104695761019c565b8063308c8291116101595780634b6335ee116101335780634b6335ee146103595780634b84d3d9146103845780634cf24f13146103c1578063514fcac7146103ea5761019c565b8063308c8291146102d557806332f7e2951461030557806334eec86a146103425761019c565b80631600c6cd146101a157806316e21901146101de5780632052763d146101f557806322f974d21461021e5780632b9e95421461025b5780632d7e257314610298575b600080fd5b3480156101ad57600080fd5b506101c860048036038101906101c39190613064565b6106b6565b6040516101d59190613bf8565b60405180910390f35b3480156101ea57600080fd5b506101f36106e7565b005b34801561020157600080fd5b5061021c60048036038101906102179190613129565b610817565b005b34801561022a57600080fd5b5061024560048036038101906102409190612fff565b610bab565b6040516102529190613920565b60405180910390f35b34801561026757600080fd5b50610282600480360381019061027d9190612fff565b610c42565b60405161028f9190613920565b60405180910390f35b3480156102a457600080fd5b506102bf60048036038101906102ba9190612fff565b610cd9565b6040516102cc9190613942565b60405180910390f35b6102ef60048036038101906102ea91906130a0565b610d2f565b6040516102fc9190613bf8565b60405180910390f35b34801561031157600080fd5b5061032c60048036038101906103279190613064565b611234565b6040516103399190613bf8565b60405180910390f35b34801561034e57600080fd5b50610357611265565b005b34801561036557600080fd5b5061036e6114af565b60405161037b9190613bf8565b60405180910390f35b34801561039057600080fd5b506103ab60048036038101906103a69190613064565b6114b5565b6040516103b89190613bf8565b60405180910390f35b3480156103cd57600080fd5b506103e860048036038101906103e39190613129565b6114e6565b005b3480156103f657600080fd5b50610411600480360381019061040c9190613129565b611995565b005b34801561041f57600080fd5b50610428611e2c565b6040516104359190613bf8565b60405180910390f35b34801561044a57600080fd5b50610453611e34565b6040516104609190613bf8565b60405180910390f35b34801561047557600080fd5b5061047e611e3e565b60405161048b9190613869565b60405180910390f35b3480156104a057600080fd5b506104a9611e62565b005b3480156104b757600080fd5b506104d260048036038101906104cd9190612fff565b611f91565b6040516104df9190613942565b60405180910390f35b3480156104f457600080fd5b5061050f600480360381019061050a9190613028565b611fe7565b60405161051c9190613920565b60405180910390f35b34801561053157600080fd5b5061054c60048036038101906105479190613129565b612397565b6040516105629a99989796959493929190613884565b60405180910390f35b34801561057757600080fd5b50610580612458565b60405161058d9190613bf8565b60405180910390f35b3480156105a257600080fd5b506105bd60048036038101906105b89190612fff565b61245e565b6040516105ca9190613942565b60405180910390f35b3480156105df57600080fd5b506105fa60048036038101906105f59190612fff565b61247e565b6040516106079190613942565b60405180910390f35b34801561061c57600080fd5b5061063760048036038101906106329190613129565b61249e565b005b34801561064557600080fd5b5061064e612788565b60405161065b9190613920565b60405180910390f35b34801561067057600080fd5b5061068b60048036038101906106869190613129565b6129ec565b005b34801561069957600080fd5b506106b460048036038101906106af9190613129565b612cd6565b005b600460205281600052604060002081815481106106d257600080fd5b90600052602060002001600091509150505481565b60001515600260003373ffffffffffffffffffffffffffffffffffffffff1673ffffffffffffffffffffffffffffffffffffffff16815260200190815260200160002060009054906101000a900460ff1615151461077a576040517f08c379a000000000000000000000000000000000000000000000000000000000815260040161077190613ad8565b60405180910390fd5b6001600260003373ffffffffffffffffffffffffffffffffffffffff1673ffffffffffffffffffffffffffffffffffffffff16815260200190815260200160002060006101000a81548160ff0219169083151502179055503373ffffffffffffffffffffffffffffffffffffffff167fbe5e7a1c543800c6abb49749a131598b050660d403a09b2e31318c2048c00d7460405160405180910390a2565b6000600360008381526020019081526020016000209050600260003373ffffffffffffffffffffffffffffffffffffffff1673ffffffffffffffffffffffffffffffffffffffff16815260200190815260200160002060009054906101000a900460ff166108ba576040517f08c379a00000000000000000000000000000000000000000000000000000000081526004016108b190613b78565b60405180910390fd5b600260068111156108f4577f4e487b7100000000000000000000000000000000000000000000000000000000600052602160045260246000fd5b8160090160009054906101000a900460ff16600681111561093e577f4e487b7100000000000000000000000000000000000000000000000000000000600052602160045260246000fd5b1461097e576040517f08c379a000000000000000000000000000000000000000000000000000000000815260040161097590613bd8565b60405180910390fd5b60008211801561099057506007548211155b6109cf576040517f08c379a00000000000000000000000000000000000000000000000000000000081526004016109c690613b18565b60405180910390fd5b600073ffffffffffffffffffffffffffffffffffffffff168160020160009054906101000a900473ffffffffffffffffffffffffffffffffffffffff1673ffffffffffffffffffffffffffffffffffffffff1614610a62576040517f08c379a0000000000000000000000000000000000000000000000000000000008152600401610a5990613b38565b60405180910390fd5b338160020160006101000a81548173ffffffffffffffffffffffffffffffffffffffff021916908373ffffffffffffffffffffffffffffffffffffffff160217905550600560003373ffffffffffffffffffffffffffffffffffffffff1673ffffffffffffffffffffffffffffffffffffffff16815260200190815260200160002082908060018154018082558091505060019003906000526020600020016000909190919091505560038160090160006101000a81548160ff02191690836006811115610b59577f4e487b7100000000000000000000000000000000000000000000000000000000600052602160045260246000fd5b0217905550817fd19c095b6663262c0d185cb9af2f6b124da71e0ade064635e320fda8c705a1bc8260090160009054906101000a900460ff16604051610b9f919061395d565b60405180910390a25050565b6060600460008373ffffffffffffffffffffffffffffffffffffffff1673ffffffffffffffffffffffffffffffffffffffff168152602001908152602001600020805480602002602001604051908101604052809291908181526020018280548015610c3657602002820191906000526020600020905b815481526020019060010190808311610c22575b50505050509050919050565b6060600660008373ffffffffffffffffffffffffffffffffffffffff1673ffffffffffffffffffffffffffffffffffffffff168152602001908152602001600020805480602002602001604051908101604052809291908181526020018280548015610ccd57602002820191906000526020600020905b815481526020019060010190808311610cb9575b50505050509050919050565b6000600160008373ffffffffffffffffffffffffffffffffffffffff1673ffffffffffffffffffffffffffffffffffffffff16815260200190815260200160002060009054906101000a900460ff169050919050565b6000600160008873ffffffffffffffffffffffffffffffffffffffff1673ffffffffffffffffffffffffffffffffffffffff16815260200190815260200160002060009054906101000a900460ff16610dbd576040517f08c379a0000000000000000000000000000000000000000000000000000000008152600401610db490613b98565b60405180910390fd5b6000828486888a610dce9190613c86565b610dd89190613c86565b610de29190613c86565b610dec9190613c86565b9050803414610e30576040517f08c379a0000000000000000000000000000000000000000000000000000000008152600401610e2790613a18565b60405180910390fd5b60076000815480929190610e4390613dae565b91905055506040518061014001604052803373ffffffffffffffffffffffffffffffffffffffff1681526020018973ffffffffffffffffffffffffffffffffffffffff168152602001600073ffffffffffffffffffffffffffffffffffffffff16815260200188815260200187815260200186815260200185815260200184815260200182815260200160006006811115610f07577f4e487b7100000000000000000000000000000000000000000000000000000000600052602160045260246000fd5b81525060036000600754815260200190815260200160002060008201518160000160006101000a81548173ffffffffffffffffffffffffffffffffffffffff021916908373ffffffffffffffffffffffffffffffffffffffff16021790555060208201518160010160006101000a81548173ffffffffffffffffffffffffffffffffffffffff021916908373ffffffffffffffffffffffffffffffffffffffff16021790555060408201518160020160006101000a81548173ffffffffffffffffffffffffffffffffffffffff021916908373ffffffffffffffffffffffffffffffffffffffff160217905550606082015181600301556080820151816004015560a0820151816005015560c0820151816006015560e0820151816007015561010082015181600801556101208201518160090160006101000a81548160ff02191690836006811115611083577f4e487b7100000000000000000000000000000000000000000000000000000000600052602160045260246000fd5b0217905550905050600460003373ffffffffffffffffffffffffffffffffffffffff1673ffffffffffffffffffffffffffffffffffffffff1681526020019081526020016000206007549080600181540180825580915050600190039060005260206000200160009091909190915055600660008973ffffffffffffffffffffffffffffffffffffffff1673ffffffffffffffffffffffffffffffffffffffff16815260200190815260200160002060075490806001815401808255809150506001900390600052602060002001600090919091909150556007548873ffffffffffffffffffffffffffffffffffffffff163373ffffffffffffffffffffffffffffffffffffffff167f966afa01eced24bc818c52a7c8f7ea7a2423a043d3d96baacfbc9c3c2c7a80cd84876040516111bd929190613c13565b60405180910390a46007547fd19c095b6663262c0d185cb9af2f6b124da71e0ade064635e320fda8c705a1bc60036000600754815260200190815260200160002060090160009054906101000a900460ff1660405161121c919061395d565b60405180910390a26007549150509695505050505050565b6006602052816000526040600020818154811061125057600080fd5b90600052602060002001600091509150505481565b60008054906101000a900473ffffffffffffffffffffffffffffffffffffffff1673ffffffffffffffffffffffffffffffffffffffff163373ffffffffffffffffffffffffffffffffffffffff16146112f3576040517f08c379a00000000000000000000000000000000000000000000000000000000081526004016112ea906139b8565b60405180910390fd5b60008054906101000a900473ffffffffffffffffffffffffffffffffffffffff1673ffffffffffffffffffffffffffffffffffffffff163373ffffffffffffffffffffffffffffffffffffffff1614611381576040517f08c379a000000000000000000000000000000000000000000000000000000000815260040161137890613a78565b60405180910390fd5b6000600854116113c6576040517f08c379a00000000000000000000000000000000000000000000000000000000081526004016113bd90613b58565b60405180910390fd5b60006008549050600060088190555060008054906101000a900473ffffffffffffffffffffffffffffffffffffffff1673ffffffffffffffffffffffffffffffffffffffff166108fc829081150290604051600060405180830381858888f1935050505015801561143b573d6000803e3d6000fd5b5060008054906101000a900473ffffffffffffffffffffffffffffffffffffffff1673ffffffffffffffffffffffffffffffffffffffff167f9c5e277f5e170e749a7c88be5ee8cc092c2ec68ecfdd12047c8e5f9bcf50ff1c82476040516114a4929190613c13565b60405180910390a250565b60085481565b600560205281600052604060002081815481106114d157600080fd5b90600052602060002001600091509150505481565b600060036000838152602001908152602001600020905060046006811115611537577f4e487b7100000000000000000000000000000000000000000000000000000000600052602160045260246000fd5b8160090160009054906101000a900460ff166006811115611581577f4e487b7100000000000000000000000000000000000000000000000000000000600052602160045260246000fd5b146115c1576040517f08c379a00000000000000000000000000000000000000000000000000000000081526004016115b890613ab8565b60405180910390fd5b6000821180156115d357506007548211155b611612576040517f08c379a000000000000000000000000000000000000000000000000000000000815260040161160990613b18565b60405180910390fd5b3373ffffffffffffffffffffffffffffffffffffffff168160000160009054906101000a900473ffffffffffffffffffffffffffffffffffffffff1673ffffffffffffffffffffffffffffffffffffffff16146116a4576040517f08c379a000000000000000000000000000000000000000000000000000000000815260040161169b906139d8565b60405180910390fd5b60058160090160006101000a81548160ff021916908360068111156116f2577f4e487b7100000000000000000000000000000000000000000000000000000000600052602160045260246000fd5b02179055508060010160009054906101000a900473ffffffffffffffffffffffffffffffffffffffff1673ffffffffffffffffffffffffffffffffffffffff166108fc826004015483600301546117499190613c86565b9081150290604051600060405180830381858888f19350505050158015611774573d6000803e3d6000fd5b508060020160009054906101000a900473ffffffffffffffffffffffffffffffffffffffff1673ffffffffffffffffffffffffffffffffffffffff166108fc826006015483600501546117c79190613c86565b9081150290604051600060405180830381858888f193505050501580156117f2573d6000803e3d6000fd5b508060070154600860008282546118099190613c86565b925050819055508060010160009054906101000a900473ffffffffffffffffffffffffffffffffffffffff1673ffffffffffffffffffffffffffffffffffffffff163373ffffffffffffffffffffffffffffffffffffffff167f45fdc265dc29885b9a485766b03e70978440d38c7c328ee0a14fa40c76c6af54836004015484600301546118979190613c86565b6040516118a49190613bf8565b60405180910390a38060020160009054906101000a900473ffffffffffffffffffffffffffffffffffffffff1673ffffffffffffffffffffffffffffffffffffffff163373ffffffffffffffffffffffffffffffffffffffff167f45fdc265dc29885b9a485766b03e70978440d38c7c328ee0a14fa40c76c6af54836006015484600501546119339190613c86565b6040516119409190613bf8565b60405180910390a3817fd19c095b6663262c0d185cb9af2f6b124da71e0ade064635e320fda8c705a1bc8260090160009054906101000a900460ff16604051611989919061395d565b60405180910390a25050565b6000600360008381526020019081526020016000209050600060068111156119e6577f4e487b7100000000000000000000000000000000000000000000000000000000600052602160045260246000fd5b8160090160009054906101000a900460ff166006811115611a30577f4e487b7100000000000000000000000000000000000000000000000000000000600052602160045260246000fd5b14611a70576040517f08c379a0000000000000000000000000000000000000000000000000000000008152600401611a6790613a98565b60405180910390fd5b3373ffffffffffffffffffffffffffffffffffffffff168160000160009054906101000a900473ffffffffffffffffffffffffffffffffffffffff1673ffffffffffffffffffffffffffffffffffffffff161480611b1d57503373ffffffffffffffffffffffffffffffffffffffff168160010160009054906101000a900473ffffffffffffffffffffffffffffffffffffffff1673ffffffffffffffffffffffffffffffffffffffff16145b611b5c576040517f08c379a0000000000000000000000000000000000000000000000000000000008152600401611b53906139f8565b60405180910390fd5b600082118015611b6e57506007548211155b611bad576040517f08c379a0000000000000000000000000000000000000000000000000000000008152600401611ba490613b18565b60405180910390fd5b60068160090160006101000a81548160ff02191690836006811115611bfb577f4e487b7100000000000000000000000000000000000000000000000000000000600052602160045260246000fd5b0217905550600060028260070154611c139190613cdc565b8260080154611c229190613d0d565b90508160000160009054906101000a900473ffffffffffffffffffffffffffffffffffffffff1673ffffffffffffffffffffffffffffffffffffffff163373ffffffffffffffffffffffffffffffffffffffff161415611d15578160000160009054906101000a900473ffffffffffffffffffffffffffffffffffffffff1673ffffffffffffffffffffffffffffffffffffffff166108fc829081150290604051600060405180830381858888f19350505050158015611ce6573d6000803e3d6000fd5b5060028260070154611cf89190613cdc565b60086000828254611d099190613c86565b92505081905550611dde565b8160010160009054906101000a900473ffffffffffffffffffffffffffffffffffffffff1673ffffffffffffffffffffffffffffffffffffffff163373ffffffffffffffffffffffffffffffffffffffff161415611ddd578160000160009054906101000a900473ffffffffffffffffffffffffffffffffffffffff1673ffffffffffffffffffffffffffffffffffffffff166108fc83600801549081150290604051600060405180830381858888f19350505050158015611ddb573d6000803e3d6000fd5b505b5b827fd19c095b6663262c0d185cb9af2f6b124da71e0ade064635e320fda8c705a1bc8360090160009054906101000a900460ff16604051611e1f919061395d565b60405180910390a2505050565b600047905090565b6000600854905090565b60008054906101000a900473ffffffffffffffffffffffffffffffffffffffff1681565b60001515600160003373ffffffffffffffffffffffffffffffffffffffff1673ffffffffffffffffffffffffffffffffffffffff16815260200190815260200160002060009054906101000a900460ff16151514611ef5576040517f08c379a0000000000000000000000000000000000000000000000000000000008152600401611eec90613a38565b60405180910390fd5b60018060003373ffffffffffffffffffffffffffffffffffffffff1673ffffffffffffffffffffffffffffffffffffffff16815260200190815260200160002060006101000a81548160ff0219169083151502179055503373ffffffffffffffffffffffffffffffffffffffff167fc38972980c4ca0ebac5f2d9dc894468b8c0113fb644ad47027e076a1bfe4f62360405160405180910390a2565b6000600260008373ffffffffffffffffffffffffffffffffffffffff1673ffffffffffffffffffffffffffffffffffffffff16815260200190815260200160002060009054906101000a900460ff169050919050565b60606000600660008573ffffffffffffffffffffffffffffffffffffffff1673ffffffffffffffffffffffffffffffffffffffff16815260200190815260200160002080548060200260200160405190810160405280929190818152602001828054801561207457602002820191906000526020600020905b815481526020019060010190808311612060575b505050505090506000805b8251811015612185578460068111156120c1577f4e487b7100000000000000000000000000000000000000000000000000000000600052602160045260246000fd5b600360008584815181106120fe577f4e487b7100000000000000000000000000000000000000000000000000000000600052603260045260246000fd5b6020026020010151815260200190815260200160002060090160009054906101000a900460ff16600681111561215d577f4e487b7100000000000000000000000000000000000000000000000000000000600052602160045260246000fd5b141561217257818061216e90613dae565b9250505b808061217d90613dae565b91505061207f565b5060008167ffffffffffffffff8111156121c8577f4e487b7100000000000000000000000000000000000000000000000000000000600052604160045260246000fd5b6040519080825280602002602001820160405280156121f65781602001602082028036833780820191505090505b5090506000805b84518110156123895786600681111561223f577f4e487b7100000000000000000000000000000000000000000000000000000000600052602160045260246000fd5b6003600087848151811061227c577f4e487b7100000000000000000000000000000000000000000000000000000000600052603260045260246000fd5b6020026020010151815260200190815260200160002060090160009054906101000a900460ff1660068111156122db577f4e487b7100000000000000000000000000000000000000000000000000000000600052602160045260246000fd5b14156123765784818151811061231a577f4e487b7100000000000000000000000000000000000000000000000000000000600052603260045260246000fd5b602002602001015183838151811061235b577f4e487b7100000000000000000000000000000000000000000000000000000000600052603260045260246000fd5b602002602001018181525050818061237290613dae565b9250505b808061238190613dae565b9150506121fd565b508194505050505092915050565b60036020528060005260406000206000915090508060000160009054906101000a900473ffffffffffffffffffffffffffffffffffffffff16908060010160009054906101000a900473ffffffffffffffffffffffffffffffffffffffff16908060020160009054906101000a900473ffffffffffffffffffffffffffffffffffffffff16908060030154908060040154908060050154908060060154908060070154908060080154908060090160009054906101000a900460ff1690508a565b60075481565b60026020528060005260406000206000915054906101000a900460ff1681565b60016020528060005260406000206000915054906101000a900460ff1681565b6000600360008381526020019081526020016000209050600160003373ffffffffffffffffffffffffffffffffffffffff1673ffffffffffffffffffffffffffffffffffffffff16815260200190815260200160002060009054906101000a900460ff16612541576040517f08c379a000000000000000000000000000000000000000000000000000000000815260040161253890613b98565b60405180910390fd5b6001600681111561257b577f4e487b7100000000000000000000000000000000000000000000000000000000600052602160045260246000fd5b8160090160009054906101000a900460ff1660068111156125c5577f4e487b7100000000000000000000000000000000000000000000000000000000600052602160045260246000fd5b14612605576040517f08c379a00000000000000000000000000000000000000000000000000000000081526004016125fc90613bb8565b60405180910390fd5b3373ffffffffffffffffffffffffffffffffffffffff168160010160009054906101000a900473ffffffffffffffffffffffffffffffffffffffff1673ffffffffffffffffffffffffffffffffffffffff1614612697576040517f08c379a000000000000000000000000000000000000000000000000000000000815260040161268e90613978565b60405180910390fd5b6000821180156126a957506007548211155b6126e8576040517f08c379a00000000000000000000000000000000000000000000000000000000081526004016126df90613b18565b60405180910390fd5b60028160090160006101000a81548160ff02191690836006811115612736577f4e487b7100000000000000000000000000000000000000000000000000000000600052602160045260246000fd5b0217905550817fd19c095b6663262c0d185cb9af2f6b124da71e0ade064635e320fda8c705a1bc8260090160009054906101000a900460ff1660405161277c919061395d565b60405180910390a25050565b6060600080600190505b600754811161285957600260068111156127d5577f4e487b7100000000000000000000000000000000000000000000000000000000600052602160045260246000fd5b6003600083815260200190815260200160002060090160009054906101000a900460ff166006811115612831577f4e487b7100000000000000000000000000000000000000000000000000000000600052602160045260246000fd5b141561284657818061284290613dae565b9250505b808061285190613dae565b915050612792565b5060008167ffffffffffffffff81111561289c577f4e487b7100000000000000000000000000000000000000000000000000000000600052604160045260246000fd5b6040519080825280602002602001820160405280156128ca5781602001602082028036833780820191505090505b509050600080600190505b60075481116129e25760026006811115612918577f4e487b7100000000000000000000000000000000000000000000000000000000600052602160045260246000fd5b6003600083815260200190815260200160002060090160009054906101000a900460ff166006811115612974577f4e487b7100000000000000000000000000000000000000000000000000000000600052602160045260246000fd5b14156129cf57808383815181106129b4577f4e487b7100000000000000000000000000000000000000000000000000000000600052603260045260246000fd5b60200260200101818152505081806129cb90613dae565b9250505b80806129da90613dae565b9150506128d5565b5081935050505090565b6000600360008381526020019081526020016000209050600260003373ffffffffffffffffffffffffffffffffffffffff1673ffffffffffffffffffffffffffffffffffffffff16815260200190815260200160002060009054906101000a900460ff16612a8f576040517f08c379a0000000000000000000000000000000000000000000000000000000008152600401612a8690613b78565b60405180910390fd5b60036006811115612ac9577f4e487b7100000000000000000000000000000000000000000000000000000000600052602160045260246000fd5b8160090160009054906101000a900460ff166006811115612b13577f4e487b7100000000000000000000000000000000000000000000000000000000600052602160045260246000fd5b14612b53576040517f08c379a0000000000000000000000000000000000000000000000000000000008152600401612b4a90613af8565b60405180910390fd5b600082118015612b6557506007548211155b612ba4576040517f08c379a0000000000000000000000000000000000000000000000000000000008152600401612b9b90613b18565b60405180910390fd5b3373ffffffffffffffffffffffffffffffffffffffff168160020160009054906101000a900473ffffffffffffffffffffffffffffffffffffffff1673ffffffffffffffffffffffffffffffffffffffff1614612c36576040517f08c379a0000000000000000000000000000000000000000000000000000000008152600401612c2d90613998565b60405180910390fd5b60048160090160006101000a81548160ff02191690836006811115612c84577f4e487b7100000000000000000000000000000000000000000000000000000000600052602160045260246000fd5b0217905550817fd19c095b6663262c0d185cb9af2f6b124da71e0ade064635e320fda8c705a1bc8260090160009054906101000a900460ff16604051612cca919061395d565b60405180910390a25050565b6000600360008381526020019081526020016000209050600160003373ffffffffffffffffffffffffffffffffffffffff1673ffffffffffffffffffffffffffffffffffffffff16815260200190815260200160002060009054906101000a900460ff16612d79576040517f08c379a0000000000000000000000000000000000000000000000000000000008152600401612d7090613b98565b60405180910390fd5b60006006811115612db3577f4e487b7100000000000000000000000000000000000000000000000000000000600052602160045260246000fd5b8160090160009054906101000a900460ff166006811115612dfd577f4e487b7100000000000000000000000000000000000000000000000000000000600052602160045260246000fd5b14612e3d576040517f08c379a0000000000000000000000000000000000000000000000000000000008152600401612e3490613a58565b60405180910390fd5b3373ffffffffffffffffffffffffffffffffffffffff168160010160009054906101000a900473ffffffffffffffffffffffffffffffffffffffff1673ffffffffffffffffffffffffffffffffffffffff1614612ecf576040517f08c379a0000000000000000000000000000000000000000000000000000000008152600401612ec690613978565b60405180910390fd5b600082118015612ee157506007548211155b612f20576040517f08c379a0000000000000000000000000000000000000000000000000000000008152600401612f1790613b18565b60405180910390fd5b60018160090160006101000a81548160ff02191690836006811115612f6e577f4e487b7100000000000000000000000000000000000000000000000000000000600052602160045260246000fd5b0217905550817fd19c095b6663262c0d185cb9af2f6b124da71e0ade064635e320fda8c705a1bc8260090160009054906101000a900460ff16604051612fb4919061395d565b60405180910390a25050565b600081359050612fcf81613e98565b92915050565b600081359050612fe481613eaf565b92915050565b600081359050612ff981613ebf565b92915050565b60006020828403121561301157600080fd5b600061301f84828501612fc0565b91505092915050565b6000806040838503121561303b57600080fd5b600061304985828601612fc0565b925050602061305a85828601612fd5565b9150509250929050565b6000806040838503121561307757600080fd5b600061308585828601612fc0565b925050602061309685828601612fea565b9150509250929050565b60008060008060008060c087890312156130b957600080fd5b60006130c789828a01612fc0565b96505060206130d889828a01612fea565b95505060406130e989828a01612fea565b94505060606130fa89828a01612fea565b935050608061310b89828a01612fea565b92505060a061311c89828a01612fea565b9150509295509295509295565b60006020828403121561313b57600080fd5b600061314984828501612fea565b91505092915050565b600061315e838361384b565b60208301905092915050565b61317381613d41565b82525050565b600061318482613c4c565b61318e8185613c64565b935061319983613c3c565b8060005b838110156131ca5781516131b18882613152565b97506131bc83613c57565b92505060018101905061319d565b5085935050505092915050565b6131e081613d53565b82525050565b6131ef81613d9c565b82525050565b6000613202602383613c75565b91507f4f7264657220646f6573206e6f742062656c6f6e6720746f207468697320737460008301527f6f726500000000000000000000000000000000000000000000000000000000006020830152604082019050919050565b6000613268602483613c75565b91507f4f7264657220646f6573206e6f742062656c6f6e6720746f207468697320647260008301527f69766572000000000000000000000000000000000000000000000000000000006020830152604082019050919050565b60006132ce602183613c75565b91507f4f6e6c79206f776e65722063616e2063616c6c20746869732066756e6374696f60008301527f6e000000000000000000000000000000000000000000000000000000000000006020830152604082019050919050565b6000613334602683613c75565b91507f4f7264657220646f6573206e6f742062656c6f6e6720746f207468697320637560008301527f73746f6d657200000000000000000000000000000000000000000000000000006020830152604082019050919050565b600061339a602383613c75565b91507f4e6f7420617574686f72697a656420746f2063616e63656c2074686973206f7260008301527f64657200000000000000000000000000000000000000000000000000000000006020830152604082019050919050565b6000613400601e83613c75565b91507f496e73756666696369656e74207061796d656e7420666f72206f7264657200006000830152602082019050919050565b6000613440601b83613c75565b91507f53746f726520697320616c7265616479207265676973746572656400000000006000830152602082019050919050565b6000613480601c83613c75565b91507f4f72646572206973206e6f7420696e20506c61636564207374617465000000006000830152602082019050919050565b60006134c0602783613c75565b91507f4f6e6c79206f776e65722063616e2077697468647261772070726f636573736960008301527f6e672066656573000000000000000000000000000000000000000000000000006020830152604082019050919050565b6000613526602683613c75565b91507f4f726465722063616e6e6f742062652063616e63656c6564206174207468697360008301527f20737461676500000000000000000000000000000000000000000000000000006020830152604082019050919050565b600061358c601f83613c75565b91507f4f72646572206973206e6f7420696e2044656c697665726564207374617465006000830152602082019050919050565b60006135cc601c83613c75565b91507f44726976657220697320616c72656164792072656769737465726564000000006000830152602082019050919050565b600061360c602083613c75565b91507f4f72646572206973206e6f7420696e204f6e44656c69766572792073746174656000830152602082019050919050565b600061364c601083613c75565b91507f496e76616c6964206f72646572204944000000000000000000000000000000006000830152602082019050919050565b600061368c602383613c75565b91507f4f7264657220616c72656164792068617320612064726976657220617373696760008301527f6e656400000000000000000000000000000000000000000000000000000000006020830152604082019050919050565b60006136f2601e83613c75565b91507f4e6f2070726f63657373696e67206665657320746f20776974686472617700006000830152602082019050919050565b6000613732601883613c75565b91507f447269766572206973206e6f74207265676973746572656400000000000000006000830152602082019050919050565b6000613772601783613c75565b91507f53746f7265206973206e6f7420726567697374657265640000000000000000006000830152602082019050919050565b60006137b2601e83613c75565b91507f4f72646572206973206e6f7420696e20416363657074656420737461746500006000830152602082019050919050565b60006137f2602483613c75565b91507f4f72646572206973206e6f7420696e205265616479466f725069636b7570207360008301527f74617465000000000000000000000000000000000000000000000000000000006020830152604082019050919050565b61385481613d92565b82525050565b61386381613d92565b82525050565b600060208201905061387e600083018461316a565b92915050565b60006101408201905061389a600083018d61316a565b6138a7602083018c61316a565b6138b4604083018b61316a565b6138c1606083018a61385a565b6138ce608083018961385a565b6138db60a083018861385a565b6138e860c083018761385a565b6138f560e083018661385a565b61390361010083018561385a565b6139116101208301846131e6565b9b9a5050505050505050505050565b6000602082019050818103600083015261393a8184613179565b905092915050565b600060208201905061395760008301846131d7565b92915050565b600060208201905061397260008301846131e6565b92915050565b60006020820190508181036000830152613991816131f5565b9050919050565b600060208201905081810360008301526139b18161325b565b9050919050565b600060208201905081810360008301526139d1816132c1565b9050919050565b600060208201905081810360008301526139f181613327565b9050919050565b60006020820190508181036000830152613a118161338d565b9050919050565b60006020820190508181036000830152613a31816133f3565b9050919050565b60006020820190508181036000830152613a5181613433565b9050919050565b60006020820190508181036000830152613a7181613473565b9050919050565b60006020820190508181036000830152613a91816134b3565b9050919050565b60006020820190508181036000830152613ab181613519565b9050919050565b60006020820190508181036000830152613ad18161357f565b9050919050565b60006020820190508181036000830152613af1816135bf565b9050919050565b60006020820190508181036000830152613b11816135ff565b9050919050565b60006020820190508181036000830152613b318161363f565b9050919050565b60006020820190508181036000830152613b518161367f565b9050919050565b60006020820190508181036000830152613b71816136e5565b9050919050565b60006020820190508181036000830152613b9181613725565b9050919050565b60006020820190508181036000830152613bb181613765565b9050919050565b60006020820190508181036000830152613bd1816137a5565b9050919050565b60006020820190508181036000830152613bf1816137e5565b9050919050565b6000602082019050613c0d600083018461385a565b92915050565b6000604082019050613c28600083018561385a565b613c35602083018461385a565b9392505050565b6000819050602082019050919050565b600081519050919050565b6000602082019050919050565b600082825260208201905092915050565b600082825260208201905092915050565b6000613c9182613d92565b9150613c9c83613d92565b9250827fffffffffffffffffffffffffffffffffffffffffffffffffffffffffffffffff03821115613cd157613cd0613df7565b5b828201905092915050565b6000613ce782613d92565b9150613cf283613d92565b925082613d0257613d01613e26565b5b828204905092915050565b6000613d1882613d92565b9150613d2383613d92565b925082821015613d3657613d35613df7565b5b828203905092915050565b6000613d4c82613d72565b9050919050565b60008115159050919050565b6000819050613d6d82613e84565b919050565b600073ffffffffffffffffffffffffffffffffffffffff82169050919050565b6000819050919050565b6000613da782613d5f565b9050919050565b6000613db982613d92565b91507fffffffffffffffffffffffffffffffffffffffffffffffffffffffffffffffff821415613dec57613deb613df7565b5b600182019050919050565b7f4e487b7100000000000000000000000000000000000000000000000000000000600052601160045260246000fd5b7f4e487b7100000000000000000000000000000000000000000000000000000000600052601260045260246000fd5b7f4e487b7100000000000000000000000000000000000000000000000000000000600052602160045260246000fd5b60078110613e9557613e94613e55565b5b50565b613ea181613d41565b8114613eac57600080fd5b50565b60078110613ebc57600080fd5b50565b613ec881613d92565b8114613ed357600080fd5b5056fea2646970667358221220a7deba7ed0404f2355c3df914d59c4bed332cfd0e0a4ec66b0c481b349cf957064736f6c63430008000033",
  "immutableReferences": {},
  "source": "// SPDX-License-Identifier: MIT\r\npragma solidity ^0.8.0;\r\n\r\ncontract MealDispatchDApp {\r\n\t\r\n\t// Enums for order states \r\n\tenum OrderState {\r\n\t\tPlaced,\r\n\t\tAccepted,\r\n\t\tReadyForPickup,\r\n\t\tOnDelivery,\t\r\n\t\tDelivered,\r\n\t\tCompleted,\r\n\t\tCanceled\r\n\t}\r\n\r\n\t// Structs for Store, Customer, Driver, and Order\r\n\t//struct Store {\r\n\t//string name;\r\n\t//\taddress accountAddress;\r\n\t//}\r\n\r\n\t//struct Customer {\r\n\t\t//string name;\r\n\t\t//address accountAddress;\r\n\t//}\r\n\r\n\t//struct Driver {\r\n\t\t//string name;\r\n\t\t//address accountAddress;\r\n\t//}\r\n\r\n\tstruct Order {\r\n\t\taddress customer;\r\n\t\taddress store;\r\n\t\taddress driver;\r\n\t\tuint foodTotal;\r\n\t\tuint foodTip;\r\n\t\tuint deliveryFee;\r\n\t\tuint deliveryTip;\r\n\t\tuint processingFee;\r\n\t\tuint totalAmount;\r\n\t\tOrderState status;\r\n\t}\r\n\r\n\t// platform owner who receives processing fees\r\n\taddress public owner;\r\n\r\n\t// *********** Mappings to store entities and orders ***********\r\n\r\n\t//  storeAddress => isRegistered\r\n\tmapping(address => bool) public storesIsRegistered;\r\n\r\n\t//  driverAddress => isRegistered\r\n\tmapping(address => bool) public driversIsRegistered;\r\n\r\n\t//  orderId => Order struct\r\n\tmapping(uint => Order) public orders;\r\n\r\n\t// Mapping to store orders by order ID (orderId => Order struct)\r\n\t//mapping(uint => Order) public Orders;\r\n\r\n\t// Mapping to track which Ethereum address is used\r\n\t//mapping(address => bool) public addressUsed;\r\n\r\n\t// keep track of orders(order Ids) for each customer, store, and driver\r\n\tmapping(address => uint[]) public customerOrders;\r\n\tmapping(address => uint[]) public driverOrders;\r\n\tmapping(address => uint[]) public storeOrders;\r\n\r\n\t// ***************** events *******************\r\n\tevent OrderPlaced(address indexed customer, address indexed store, uint indexed orderId, uint totalAmount, uint processingFee);\r\n\tevent OrderStateChanged(uint indexed orderId, OrderState status);\r\n\t//event OrderAccepted(address indexed store, uint indexed orderId);\r\n\t//event OrderDelivered(address indexed driver, uint indexed orderId);\r\n\t//event OrderCompleted(address indexed customer, uint indexed orderId);\t\r\n\tevent StoreRegistered(address indexed storeAddress);\r\n\t//event CustomerRegistered(string customerName, address indexed accountAddress);\r\n\tevent DriverRegistered(address indexed driverAddress);\r\n\tevent PaymentReceived(address indexed from, address indexed to, uint amount);\r\n\t//event ProcessingFeeWithdrawn(address indexed owner, uint amount);\r\n\t// envent withdrawn amount and contract balance\r\n\tevent ProcessingFeeWithdrawn(address indexed owner, uint amount, uint contractBalance);\r\n\r\n\t// ***************** Modifiers *******************\r\n\t// make sure only owner can call withdraw function\r\n\tmodifier onlyOwner() {\r\n\t\trequire(msg.sender == owner, \"Only owner can call this function\");\r\n\t\t_; // continue executing the rest of the function\r\n\t}\r\n\r\n\t// order conunter\r\n\tuint public  orderCounter;\r\n\r\n\t// track total fees collected\r\n\tuint public totalProcessingFeesCollected;\r\n\r\n\t// constructor runs when the contract is deployed - customer, store, driver registrations could go here\r\n\tconstructor() {\r\n\t\torderCounter = 0;\r\n\t\towner = msg.sender;\r\n\t\ttotalProcessingFeesCollected = 0;\r\n\t}\r\n\r\n\t// ***************** functions *******************\r\n\r\n\t// register store function\r\n\tfunction registerStore() external {\r\n\r\n\t\t//validate store is not already registered\r\n\t\trequire(storesIsRegistered[msg.sender] == false, \"Store is already registered\");\r\n\t\tstoresIsRegistered[msg.sender] = true;\r\n\t\temit StoreRegistered(msg.sender);\r\n\t}\r\n\r\n\t// register driver function\r\n\tfunction registerDriver() external {\r\n\r\n\t\t//validate driver is not already registered\r\n\t\trequire(driversIsRegistered[msg.sender] == false, \"Driver is already registered\");\r\n\t\tdriversIsRegistered[msg.sender] = true;\r\n\t\temit DriverRegistered(msg.sender);\r\n\t}\r\n\r\n\t// place order function\r\n\tfunction placeOrder(\r\n\t\taddress _storeAddress,\r\n\t\tuint _foodTotal,\r\n\t\tuint _foodTip,\r\n\t\tuint _deliveryFee,\r\n\t\tuint _deliveryTip,\r\n\t\tuint _processingFee\r\n\t\t) external payable returns (uint) {\r\n\r\n\t\t// validate store is registered\r\n\t\trequire(storesIsRegistered[_storeAddress], \"Store is not registered\");\r\n\r\n\t\t// validate payment amount\r\n\t\tuint _totalAmount = _foodTotal + _foodTip + _deliveryFee + _deliveryTip + _processingFee;\r\n\t\trequire(msg.value == _totalAmount, \"Insufficient payment for order\");\r\n\r\n\t\torderCounter++;\r\n\r\n\t\t// create order\r\n\t\torders[orderCounter] = Order({\r\n\t\t\tcustomer: msg.sender,\r\n\t\t\tstore: _storeAddress,\r\n\t\t\tdriver: address(0),\r\n\t\t\tfoodTotal: _foodTotal,\r\n\t\t\tfoodTip: _foodTip,\r\n\t\t\tdeliveryFee: _deliveryFee,\r\n\t\t\tdeliveryTip: _deliveryTip,\r\n\t\t\tprocessingFee: _processingFee,\r\n\t\t\ttotalAmount: _totalAmount,\r\n\t\t\tstatus: OrderState.Placed\r\n\t\t});\r\n\r\n\t\t// add order to customer and store order lists\r\n\t\tcustomerOrders[msg.sender].push(orderCounter);\r\n\t\tstoreOrders[_storeAddress].push(orderCounter);\r\n\r\n\t\t// update total processing fees collected+++++++++++++++++check later\r\n\t\t//totalProcessingFeesCollected += _processingFee;\r\n\r\n\t\t// emit event\r\n\t\temit OrderPlaced(msg.sender, _storeAddress, orderCounter, _totalAmount,_processingFee);\r\n\t\temit OrderStateChanged(orderCounter, orders[orderCounter].status);\r\n\r\n\t\treturn orderCounter;\r\n\t}\r\n\r\n\t// accept order function\r\n\tfunction acceptOrder(uint _orderId) external {\r\n\r\n\t\tOrder storage order = orders[_orderId];\r\n\r\n\t\t// validate store is registered\r\n\t\trequire(storesIsRegistered[msg.sender], \"Store is not registered\");\r\n\r\n\t\t// validate order is in Placed state\r\n\t\trequire(order.status == OrderState.Placed, \"Order is not in Placed state\");\r\n\r\n\t\t// validate msg.sender is the store for the order\r\n\t\trequire(order.store == msg.sender, \"Order does not belong to this store\");\r\n\r\n\t\t// validate orderId is valid\r\n\t\trequire(_orderId > 0 && _orderId <= orderCounter, \"Invalid order ID\");\r\n\t\t\r\n\t\t// update order status to Accepted\r\n\t\torder.status = OrderState.Accepted;\r\n\r\n\t\t// emit event\r\n\t\temit OrderStateChanged(_orderId, order.status);\r\n\t}\r\n\r\n\t// cancel order\r\n\tfunction cancelOrder(uint _orderId) external {\r\n\t\t// get order\r\n\t\tOrder storage order = orders[_orderId];\r\n\r\n\t\t// validate order is not accepted yet\r\n\t\trequire(order.status == OrderState.Placed, \"Order cannot be canceled at this stage\");\r\n\r\n\t\t// validate msg.sender is the customer who placed the order or the store can cancel the order \r\n\t\trequire(order.customer == msg.sender || order.store == msg.sender, \"Not authorized to cancel this order\");\r\n\r\n\t\t// validate orderId is valid\r\n\t\trequire(_orderId > 0 && _orderId <= orderCounter, \"Invalid order ID\");\r\n\r\n\t\t// update order status to Canceled\r\n\t\torder.status = OrderState.Canceled;\r\n\r\n\t\t// define who is responsible for system fees on cancellation\r\n\t\tuint refundAmount = order.totalAmount - ((order.processingFee)/2);\r\n\r\n\t\t// refund \r\n\t\tif (msg.sender == order.customer) {\r\n\t\t\t// if customer cancels they incur half the processing fee\r\n\t\t\tpayable(order.customer).transfer(refundAmount);\r\n\t\t\ttotalProcessingFeesCollected += (order.processingFee)/2;\r\n\t\t\t//payable(owner).transfer((order.processingFee)/2);\r\n\t\t} else if (msg.sender == order.store) {\r\n\t\t\tpayable(order.customer).transfer(order.totalAmount);\r\n\t\t\t// store cancelation does not incur a processing fee in the current model\r\n\t\t\t// in future system will have cancellation fees for stores by forcing them to deposite a small amount when registering if a store cancels more then deposited amount they will be removed from registerd stores and have to re-register for accepting orders. In this case the store will loose all not accepted orders and customers will be refunded in full.\r\n\t\t}\r\n\r\n\t\t// emit event\r\n\t\temit OrderStateChanged(_orderId, order.status);\r\n\t}\r\n\r\n\t// mark order ready for pickup\r\n\tfunction readyForPickup(uint _orderId) external {\r\n\r\n\t\t// get order\r\n\t\tOrder storage order = orders[_orderId];\r\n\r\n\t\t// validate store is registered\r\n\t\trequire(storesIsRegistered[msg.sender], \"Store is not registered\");\r\n\r\n\t\t// validate order is in Placed state\r\n\t\trequire(order.status == OrderState.Accepted, \"Order is not in Accepted state\");\r\n\r\n\t\t// validate msg.sender is the store for the order\r\n\t\trequire(order.store == msg.sender, \"Order does not belong to this store\");\r\n\r\n\t\t// validate orderId is valid\r\n\t\trequire(_orderId > 0 && _orderId <= orderCounter, \"Invalid order ID\");\r\n\r\n\t\t// update order status to ReadyForPickup\r\n\t\torder.status = OrderState.ReadyForPickup;\r\n\r\n\t\t//emit event\r\n\t\temit OrderStateChanged(_orderId, order.status);\r\n    }\r\n\t\r\n  \r\n\t// pick up order\r\n\tfunction pickedUpOrder(uint _orderId) external {\r\n\r\n\t\t// get order\r\n\t\tOrder storage order = orders[_orderId];\r\n\r\n\t\t// validate driver is registered\r\n\t\trequire(driversIsRegistered[msg.sender], \"Driver is not registered\");\r\n\r\n\t\t// validate order is in ReadyForPickup state\r\n\t\trequire(order.status == OrderState.ReadyForPickup, \"Order is not in ReadyForPickup state\");\r\n\r\n\t\t// validate orderId is valid\r\n\t\trequire(_orderId > 0 && _orderId <= orderCounter, \"Invalid order ID\");\r\n\r\n\t\t// validate order does not have a driver assigned yet\r\n\t\trequire(order.driver == address(0), \"Order already has a driver assigned\");\r\n\r\n\t\t// assign driver to order\r\n\t\torder.driver = msg.sender;\r\n\r\n\t\t// add order to driver order list\r\n\t\tdriverOrders[msg.sender].push(_orderId);\r\n\r\n\t\t// update order status to OnDelivery\r\n\t\torder.status = OrderState.OnDelivery;\r\n\r\n\t\t// emit event\r\n\t\temit OrderStateChanged(_orderId, order.status);\r\n\t}\r\n\r\n\t// deliver order\r\n\tfunction orderDelivered(uint _orderId) external {\r\n\t\t// get order\r\n\t\tOrder storage order = orders[_orderId];\r\n\r\n\t\t// validate driver is registered\r\n\t\trequire(driversIsRegistered[msg.sender], \"Driver is not registered\");\r\n\r\n\t\t// validate order is in OnDelivery state\r\n\t\trequire(order.status == OrderState.OnDelivery, \"Order is not in OnDelivery state\");\r\n\r\n\t\t// validate orderId is valid\r\n\t\trequire(_orderId > 0 && _orderId <= orderCounter, \"Invalid order ID\");\r\n\r\n\t\t// validate msg.sender is the driver for the order\r\n\t\trequire(order.driver == msg.sender, \"Order does not belong to this driver\");\r\n\r\n\t\t// update order status to Delivered\r\n\t\torder.status = OrderState.Delivered;\r\n\r\n\t\t// emit event\r\n\t\temit OrderStateChanged(_orderId, order.status);\r\n\t}\r\n\r\n\t// complete order\r\n\tfunction confirmOrderDelivered(uint _orderId) external {\r\n\t\t// get order\r\n\t\tOrder storage order = orders[_orderId];\r\n\r\n\t\t// validate order is in Delivered state\r\n\t\trequire(order.status == OrderState.Delivered, \"Order is not in Delivered state\");\r\n\r\n\t\t// validate orderId is valid\r\n\t\trequire(_orderId > 0 && _orderId <= orderCounter, \"Invalid order ID\");\r\n\r\n\t\t// validate msg.sender is the customer for the order\r\n\t\trequire(order.customer == msg.sender, \"Order does not belong to this customer\");\r\n\r\n\t\t// update order status to Completed\r\n\t\torder.status = OrderState.Completed;\r\n\r\n\t\t// distribute payments\r\n\t\tpayable(order.store).transfer(order.foodTotal + order.foodTip);\r\n\t\tpayable(order.driver).transfer(order.deliveryFee + order.deliveryTip);\r\n\t\ttotalProcessingFeesCollected += order.processingFee;\r\n\t\t//payable(owner).transfer(order.processingFee);\r\n\r\n\t\t// emit event\r\n\t\temit PaymentReceived(msg.sender, order.store, order.foodTotal + order.foodTip);\r\n\t\temit PaymentReceived(msg.sender, order.driver, order.deliveryFee + order.deliveryTip);\r\n\t\temit OrderStateChanged(_orderId, order.status);\r\n\t}\r\n\r\n\t// owner withdraw processing fees only owner can call\r\n\tfunction withdrawProcessingFees() external onlyOwner {\r\n\t\t// validate msg.sender is owner\r\n\t\trequire(msg.sender == owner, \"Only owner can withdraw processing fees\");\r\n\r\n\t\t// validate there are processing fees to withdraw\r\n\t\trequire(totalProcessingFeesCollected > 0, \"No processing fees to withdraw\");\r\n\r\n\t\tuint amount = totalProcessingFeesCollected;\r\n\t\ttotalProcessingFeesCollected = 0;\r\n\r\n\t\t// transfer processing fees to owner\r\n\t\tpayable(owner).transfer(amount);\r\n\r\n\t\t// emit event\r\n\t\temit ProcessingFeeWithdrawn(owner, amount, address(this).balance);\r\n\t}\r\n\r\n\t// ************** view functions **************\r\n\r\n\t//check store registration\r\n\tfunction isStoreRegistered(address _storeAddress) external view returns (bool) {\r\n\t\treturn storesIsRegistered[_storeAddress];\r\n\t}\r\n\r\n\t// check driver registration\r\n\tfunction isDriverRegistered(address _driverAddress) external view returns (bool) {\r\n\t\treturn driversIsRegistered[_driverAddress];\r\n\t}\r\n\r\n\t//check store orders\r\n\tfunction getStoreOrders(address _storeAddress) external view returns (uint[] memory) {\r\n\t\treturn storeOrders[_storeAddress];\r\n\t}\r\n\r\n\t// check customer orders\r\n\tfunction getCustomerOrders(address _customerAddress) external view returns (uint[] memory) {\r\n\t\treturn customerOrders[_customerAddress];\r\n\t}\r\n\r\n\t// check available orders for delivery\r\n\tfunction getAvailableOrderIdsForDelivery() external view returns (uint[] memory) {\r\n\t\t// count matching orders to allocate fixed-size memory array\r\n\t\tuint count = 0;\r\n\t\tfor (uint i = 1; i <= orderCounter; i++) {\r\n\t\t\tif (orders[i].status == OrderState.ReadyForPickup) {\r\n\t\t\t\tcount++;\r\n\t\t\t}\r\n\t\t}\r\n\t\tuint[] memory tempOrderIds = new uint[](count);\r\n\t\tuint idx = 0;\r\n\t\tfor (uint i = 1; i <= orderCounter; i++) {\r\n\t\t\tif (orders[i].status == OrderState.ReadyForPickup) {\r\n\t\t\t\ttempOrderIds[idx] = i;\r\n\t\t\t\tidx++;\r\n\t\t\t}\r\n\t\t}\r\n\t\treturn tempOrderIds;\r\n\t}\r\n\r\n\r\n\t// check store orders by status\r\n\tfunction getStoreOrdersIdsByStatus(address _storeAddress, OrderState _orderState) external view returns (uint[] memory) {\r\n\r\n\t\t// get the store order Ids\r\n\t\t// allOrderIds contains all order IDs for the given store\r\n\t\tuint[] memory allOrderIds = storeOrders[_storeAddress];\r\n\t\t\r\n\t\t// check all the store orders (that you have the id of them) state and if the state matches add to array\r\n\t\t// first find the size of the result array.\r\n\t\tuint count = 0;\r\n\t\tfor (uint i = 0; i < allOrderIds.length; i++) {\r\n\t\t\tif (orders[allOrderIds[i]].status == _orderState) {\r\n\t\t\t\tcount++;\r\n\t\t\t}\r\n\t\t}\r\n\r\n\t\tuint[] memory result = new uint[](count);\r\n\t\tuint idx = 0;\r\n\r\n\t\tfor (uint i = 0; i < allOrderIds.length; i++) {\r\n\t\t\tif (orders[allOrderIds[i]].status == _orderState) {\r\n\t\t\t\tresult[idx] = allOrderIds[i];\r\n\t\t\t\tidx++;\r\n\t\t\t}\r\n\t\t}\t\r\n\t\treturn result;\r\n\t}\r\n\r\n\t// check contract balance\r\n\tfunction getContractBalance() external view returns (uint) {\r\n\t\treturn address(this).balance;\r\n\t}\r\n\r\n\t// check processing fees collected\r\n\tfunction getProcessingFeesCollected() external view returns (uint) {\r\n\t\treturn totalProcessingFeesCollected;\r\n\t}\r\n\r\n}",
  "sourcePath": "/home/harman/shared/blockchain/contracts/meal_dispatch.sol",
  "compiler": {
    "name": "solc",
    "version": "0.8.0+commit.c7dfd78e.Emscripten.clang"
  },
  "schemaVersion": "3.4.16",
  "updatedAt": "2025-11-15T07:46:10.124Z",
  "networkType": "ethereum",
  "devdoc": {
    "kind": "dev",
    "methods": {},
    "version": 1
  },
  "userdoc": {
    "kind": "user",
    "methods": {},
    "version": 1
  }
}